{
  "contractName": "DAOFactory",
  "abi": [
    {
      "anonymous": false,
      "inputs": [
        {
          "indexed": true,
          "name": "creator",
          "type": "address"
        },
        {
          "indexed": false,
          "name": "daoContract",
          "type": "address"
        }
      ],
      "name": "DAOGenerated",
      "type": "event",
      "signature": "0x78c6828895b8739542c968f873c9604470522256c8b4ade73633403d0fc91cdf"
    },
    {
      "constant": false,
      "inputs": [
        {
          "name": "_entryFee",
          "type": "uint256"
        },
        {
          "name": "_votingPeriod",
          "type": "uint256"
        }
      ],
      "name": "createDAO",
      "outputs": [],
      "payable": true,
      "stateMutability": "payable",
      "type": "function",
      "signature": "0x3fee1918"
    },
    {
      "constant": false,
      "inputs": [],
      "name": "joinDAO",
      "outputs": [],
      "payable": false,
      "stateMutability": "nonpayable",
      "type": "function",
      "signature": "0xf63d13d7"
    },
    {
      "constant": true,
      "inputs": [
        {
          "name": "_user",
          "type": "address"
        }
      ],
      "name": "getUserDAOs",
      "outputs": [
        {
          "name": "daos",
          "type": "address[]"
        }
      ],
      "payable": false,
      "stateMutability": "view",
      "type": "function",
      "signature": "0x4f108fb0"
    },
    {
      "constant": true,
      "inputs": [
        {
          "name": "_dao",
          "type": "address"
        }
      ],
      "name": "getDAOUsers",
      "outputs": [
        {
          "name": "users",
          "type": "address[]"
        }
      ],
      "payable": false,
      "stateMutability": "view",
      "type": "function",
      "signature": "0x02f16ee1"
    }
  ],
  "bytecode": "0x608060405234801561001057600080fd5b50611e23806100206000396000f3fe608060405260043610610062576000357c0100000000000000000000000000000000000000000000000000000000900463ffffffff16806302f16ee1146100675780633fee19181461010d5780634f108fb014610145578063f63d13d7146101eb575b600080fd5b34801561007357600080fd5b506100b66004803603602081101561008a57600080fd5b81019080803573ffffffffffffffffffffffffffffffffffffffff169060200190929190505050610202565b6040518080602001828103825283818151815260200191508051906020019060200280838360005b838110156100f95780820151818401526020810190506100de565b505050509050019250505060405180910390f35b6101436004803603604081101561012357600080fd5b8101908080359060200190929190803590602001909291905050506102cf565b005b34801561015157600080fd5b506101946004803603602081101561016857600080fd5b81019080803573ffffffffffffffffffffffffffffffffffffffff169060200190929190505050610625565b6040518080602001828103825283818151815260200191508051906020019060200280838360005b838110156101d75780820151818401526020810190506101bc565b505050509050019250505060405180910390f35b3480156101f757600080fd5b506102006106f1565b005b6060600160008373ffffffffffffffffffffffffffffffffffffffff1673ffffffffffffffffffffffffffffffffffffffff1681526020019081526020016000208054806020026020016040519081016040528092919081815260200182805480156102c357602002820191906000526020600020905b8160009054906101000a900473ffffffffffffffffffffffffffffffffffffffff1673ffffffffffffffffffffffffffffffffffffffff1681526020019060010190808311610279575b50505050509050919050565b8134141515610346576040517f08c379a000000000000000000000000000000000000000000000000000000000815260040180806020018281038252601b8152602001807f496e697469617465207769746820636f72726563742076616c7565000000000081525060200191505060405180910390fd5b600082823061035361091f565b808481526020018381526020018273ffffffffffffffffffffffffffffffffffffffff1673ffffffffffffffffffffffffffffffffffffffff1681526020019350505050604051809103906000f0801580156103b3573d6000803e3d6000fd5b509050600081905060008190508073ffffffffffffffffffffffffffffffffffffffff166108fc349081150290604051600060405180830381858888f19350505050158015610406573d6000803e3d6000fd5b506000803373ffffffffffffffffffffffffffffffffffffffff1673ffffffffffffffffffffffffffffffffffffffff1681526020019081526020016000208290806001815401808255809150509060018203906000526020600020016000909192909190916101000a81548173ffffffffffffffffffffffffffffffffffffffff021916908373ffffffffffffffffffffffffffffffffffffffff16021790555050600160008373ffffffffffffffffffffffffffffffffffffffff1673ffffffffffffffffffffffffffffffffffffffff1681526020019081526020016000203390806001815401808255809150509060018203906000526020600020016000909192909190916101000a81548173ffffffffffffffffffffffffffffffffffffffff021916908373ffffffffffffffffffffffffffffffffffffffff160217905550506001600260008473ffffffffffffffffffffffffffffffffffffffff1673ffffffffffffffffffffffffffffffffffffffff16815260200190815260200160002060006101000a81548160ff0219169083151502179055503373ffffffffffffffffffffffffffffffffffffffff167f78c6828895b8739542c968f873c9604470522256c8b4ade73633403d0fc91cdf83604051808273ffffffffffffffffffffffffffffffffffffffff1673ffffffffffffffffffffffffffffffffffffffff16815260200191505060405180910390a25050505050565b60606000808373ffffffffffffffffffffffffffffffffffffffff1673ffffffffffffffffffffffffffffffffffffffff1681526020019081526020016000208054806020026020016040519081016040528092919081815260200182805480156106e557602002820191906000526020600020905b8160009054906101000a900473ffffffffffffffffffffffffffffffffffffffff1673ffffffffffffffffffffffffffffffffffffffff168152602001906001019080831161069b575b50505050509050919050565b600260003373ffffffffffffffffffffffffffffffffffffffff1673ffffffffffffffffffffffffffffffffffffffff16815260200190815260200160002060009054906101000a900460ff1615156107d8576040517f08c379a00000000000000000000000000000000000000000000000000000000081526004018080602001828103825260228152602001807f43616c6c6572206d75737420626520616e204561737944414f20636f6e74726181526020017f637400000000000000000000000000000000000000000000000000000000000081525060400191505060405180910390fd5b6000803273ffffffffffffffffffffffffffffffffffffffff1673ffffffffffffffffffffffffffffffffffffffff1681526020019081526020016000203390806001815401808255809150509060018203906000526020600020016000909192909190916101000a81548173ffffffffffffffffffffffffffffffffffffffff021916908373ffffffffffffffffffffffffffffffffffffffff16021790555050600160003373ffffffffffffffffffffffffffffffffffffffff1673ffffffffffffffffffffffffffffffffffffffff1681526020019081526020016000203290806001815401808255809150509060018203906000526020600020016000909192909190916101000a81548173ffffffffffffffffffffffffffffffffffffffff021916908373ffffffffffffffffffffffffffffffffffffffff16021790555050565b6040516114c8806109308339019056fe608060405260016003556040516060806114c88339810180604052606081101561002857600080fd5b8101908080519060200190929190805190602001909291908051906020019092919050505082600681905550816000819055506001600860003273ffffffffffffffffffffffffffffffffffffffff1673ffffffffffffffffffffffffffffffffffffffff16815260200190815260200160002060006101000a81548160ff02191690831515021790555080600260006101000a81548173ffffffffffffffffffffffffffffffffffffffff021916908373ffffffffffffffffffffffffffffffffffffffff1602179055505050506113c2806101066000396000f3fe6080604052600436106100a4576000357c0100000000000000000000000000000000000000000000000000000000900463ffffffff168063013cf08b146100a657806302a251a3146101b457806307779627146101df578063145d51151461024857806333809b6c14610283578063556f6cc0146102ae5780635c19a95c146102f3578063985da72614610344578063b688a36314610384578063ebe572911461038e575b005b3480156100b257600080fd5b506100df600480360360208110156100c957600080fd5b8101908080359060200190929190505050610460565b604051808873ffffffffffffffffffffffffffffffffffffffff1673ffffffffffffffffffffffffffffffffffffffff1681526020018060200187815260200186815260200185815260200184815260200183151515158152602001828103825288818151815260200191508051906020019080838360005b83811015610173578082015181840152602081019050610158565b50505050905090810190601f1680156101a05780820380516001836020036101000a031916815260200191505b509850505050505050505060405180910390f35b3480156101c057600080fd5b506101c9610576565b6040518082815260200191505060405180910390f35b3480156101eb57600080fd5b5061022e6004803603602081101561020257600080fd5b81019080803573ffffffffffffffffffffffffffffffffffffffff16906020019092919050505061057c565b604051808215151515815260200191505060405180910390f35b34801561025457600080fd5b506102816004803603602081101561026b57600080fd5b81019080803590602001909291905050506105ea565b005b34801561028f57600080fd5b5061029861087c565b6040518082815260200191505060405180910390f35b3480156102ba57600080fd5b506102f1600480360360408110156102d157600080fd5b810190808035906020019092919080359060200190929190505050610889565b005b3480156102ff57600080fd5b506103426004803603602081101561031657600080fd5b81019080803573ffffffffffffffffffffffffffffffffffffffff169060200190929190505050610c00565b005b34801561035057600080fd5b50610359610e34565b6040518085815260200184815260200183815260200182815260200194505050505060405180910390f35b61038c610e59565b005b34801561039a57600080fd5b5061045e600480360360408110156103b157600080fd5b81019080803590602001906401000000008111156103ce57600080fd5b8201836020820111156103e057600080fd5b8035906020019184600183028401116401000000008311171561040257600080fd5b91908080601f016020809104026020016040519081016040528093929190818152602001838380828437600081840152601f19601f8201169050808301925050505050505091929192908035906020019092919050505061109e565b005b60018181548110151561046f57fe5b90600052602060002090600702016000915090508060000160009054906101000a900473ffffffffffffffffffffffffffffffffffffffff1690806001018054600181600116156101000203166002900480601f0160208091040260200160405190810160405280929190818152602001828054600181600116156101000203166002900480156105415780601f1061051657610100808354040283529160200191610541565b820191906000526020600020905b81548152906001019060200180831161052457829003601f168201915b5050505050908060020154908060030154908060040154908060050154908060060160009054906101000a900460ff16905087565b60005481565b60006003600754101561059257600090506105e5565b60026007548115156105a057fe5b04600960008473ffffffffffffffffffffffffffffffffffffffff1673ffffffffffffffffffffffffffffffffffffffff168152602001908152602001600020541190505b919050565b6000546004600083815260200190815260200160002060030154014211151561067b576040517f08c379a000000000000000000000000000000000000000000000000000000000815260040180806020018281038252601b8152602001807f566f74696e6720706572696f64207374696c6c206f6e676f696e67000000000081525060200191505060405180910390fd5b3373ffffffffffffffffffffffffffffffffffffffff166004600083815260200190815260200160002060000160009054906101000a900473ffffffffffffffffffffffffffffffffffffffff1673ffffffffffffffffffffffffffffffffffffffff16141515610754576040517f08c379a00000000000000000000000000000000000000000000000000000000081526004018080602001828103825260118152602001807f496e76616c696420726563697069656e7400000000000000000000000000000081525060200191505060405180910390fd5b6004600082815260200190815260200160002060060160009054906101000a900460ff161515156107ed576040517f08c379a00000000000000000000000000000000000000000000000000000000081526004018080602001828103825260178152602001807f56616c756520616c72656164792077697468647261776e00000000000000000081525060200191505060405180910390fd5b60016004600083815260200190815260200160002060060160006101000a81548160ff0219169083151502179055503373ffffffffffffffffffffffffffffffffffffffff166108fc60046000848152602001908152602001600020600201549081150290604051600060405180830381858888f19350505050158015610878573d6000803e3d6000fd5b5050565b6000600160035403905090565b60011515600860003373ffffffffffffffffffffffffffffffffffffffff1673ffffffffffffffffffffffffffffffffffffffff16815260200190815260200160002060009054906101000a900460ff161515141515610951576040517f08c379a000000000000000000000000000000000000000000000000000000000815260040180806020018281038252600e8152602001807f4d757374206265206d656d62657200000000000000000000000000000000000081525060200191505060405180910390fd5b60008114806109605750600181145b15156109d4576040517f08c379a000000000000000000000000000000000000000000000000000000000815260040180806020018281038252600c8152602001807f496e76616c696420766f7465000000000000000000000000000000000000000081525060200191505060405180910390fd5b600560003373ffffffffffffffffffffffffffffffffffffffff1673ffffffffffffffffffffffffffffffffffffffff168152602001908152602001600020600083815260200190815260200160002060009054906101000a900460ff16151515610aa7576040517f08c379a00000000000000000000000000000000000000000000000000000000081526004018080602001828103825260118152602001807f48617320616c726561647920766f74656400000000000000000000000000000081525060200191505060405180910390fd5b60005460046000848152602001908152602001600020600301540142101515610b38576040517f08c379a00000000000000000000000000000000000000000000000000000000081526004018080602001828103825260158152602001807f566f74696e6720706572696f642065787069726564000000000000000000000081525060200191505060405180910390fd5b6000811415610b6c576004600083815260200190815260200160002060050160008154809291906001019190505550610b93565b60046000838152602001908152602001600020600401600081548092919060010191905055505b6001600560003373ffffffffffffffffffffffffffffffffffffffff1673ffffffffffffffffffffffffffffffffffffffff168152602001908152602001600020600084815260200190815260200160002060006101000a81548160ff0219169083151502179055505050565b60011515600860003373ffffffffffffffffffffffffffffffffffffffff1673ffffffffffffffffffffffffffffffffffffffff16815260200190815260200160002060009054906101000a900460ff161515141515610cc8576040517f08c379a000000000000000000000000000000000000000000000000000000000815260040180806020018281038252600e8152602001807f4d757374206265206d656d62657200000000000000000000000000000000000081525060200191505060405180910390fd5b600a60003373ffffffffffffffffffffffffffffffffffffffff1673ffffffffffffffffffffffffffffffffffffffff16815260200190815260200160002060009054906101000a900460ff16151515610d8a576040517f08c379a000000000000000000000000000000000000000000000000000000000815260040180806020018281038252601c8152602001807f4d656d6265722068617320616c72656164792064656c6567617465640000000081525060200191505060405180910390fd5b6001600a60003373ffffffffffffffffffffffffffffffffffffffff1673ffffffffffffffffffffffffffffffffffffffff16815260200190815260200160002060006101000a81548160ff021916908315150217905550600960008273ffffffffffffffffffffffffffffffffffffffff1673ffffffffffffffffffffffffffffffffffffffff1681526020019081526020016000206000815480929190600101919050555050565b600080600080600054600654600754610e4b61087c565b935093509350935090919293565b60065434141515610ed2576040517f08c379a00000000000000000000000000000000000000000000000000000000081526004018080602001828103825260178152602001807f496e636f727265637420656e747279207061796d656e7400000000000000000081525060200191505060405180910390fd5b600860003373ffffffffffffffffffffffffffffffffffffffff1673ffffffffffffffffffffffffffffffffffffffff16815260200190815260200160002060009054906101000a900460ff16151515610f94576040517f08c379a00000000000000000000000000000000000000000000000000000000081526004018080602001828103825260188152602001807f5573657220697320616c72656164792061206d656d626572000000000000000081525060200191505060405180910390fd5b6001600860003373ffffffffffffffffffffffffffffffffffffffff1673ffffffffffffffffffffffffffffffffffffffff16815260200190815260200160002060006101000a81548160ff021916908315150217905550600260009054906101000a900473ffffffffffffffffffffffffffffffffffffffff1673ffffffffffffffffffffffffffffffffffffffff1663f63d13d76040518163ffffffff167c0100000000000000000000000000000000000000000000000000000000028152600401600060405180830381600087803b15801561107257600080fd5b505af1158015611086573d6000803e3d6000fd5b50505050600760008154809291906001019190505550565b60011515600860003373ffffffffffffffffffffffffffffffffffffffff1673ffffffffffffffffffffffffffffffffffffffff16815260200190815260200160002060009054906101000a900460ff161515141515611166576040517f08c379a000000000000000000000000000000000000000000000000000000000815260040180806020018281038252600e8152602001807f4d757374206265206d656d62657200000000000000000000000000000000000081525060200191505060405180910390fd5b61116e61129b565b60e0604051908101604052803373ffffffffffffffffffffffffffffffffffffffff16815260200184815260200183815260200142815260200160008152602001600081526020016000151581525090508060046000600354815260200190815260200160002060008201518160000160006101000a81548173ffffffffffffffffffffffffffffffffffffffff021916908373ffffffffffffffffffffffffffffffffffffffff16021790555060208201518160010190805190602001906112389291906112f1565b5060408201518160020155606082015181600301556080820151816004015560a0820151816005015560c08201518160060160006101000a81548160ff021916908315150217905550905050600360008154809291906001019190505550505050565b60e060405190810160405280600073ffffffffffffffffffffffffffffffffffffffff16815260200160608152602001600081526020016000815260200160008152602001600081526020016000151581525090565b828054600181600116156101000203166002900490600052602060002090601f016020900481019282601f1061133257805160ff1916838001178555611360565b82800160010185558215611360579182015b8281111561135f578251825591602001919060010190611344565b5b50905061136d9190611371565b5090565b61139391905b8082111561138f576000816000905550600101611377565b5090565b9056fea165627a7a72305820e89297ccc97ccef68262d0d5b68535befce621818b0f3f5b1ecbb59168d164730029a165627a7a72305820bbb4ca08e0f9cdf04e59e195c17714578ff35d92af9f62daa3667b485733fa4b0029",
  "source": "pragma solidity 0.5.0;\n\nimport \"./EasyDAO.sol\";\n\ncontract DAOFactory {\n    mapping(address => address[]) userDAOs; // user address => dao addresses\n    mapping(address => address[]) daoUsers; // dao address => user addresses\n\n    mapping(address => bool) contractExists;\n\n    event DAOGenerated(address indexed creator, address daoContract);\n\n    function createDAO(uint256 _entryFee, uint256 _votingPeriod)\n        public\n        payable\n    {\n        require(msg.value == _entryFee, \"Initiate with correct value\");\n\n        EasyDAO newDAO = new EasyDAO(_entryFee, _votingPeriod, address(this));\n        address newDAOAddress = address(newDAO);\n\n        address payable newContractAddress = address(uint160(newDAOAddress));\n        newContractAddress.transfer(msg.value);\n\n        userDAOs[msg.sender].push(newDAOAddress);\n        daoUsers[newDAOAddress].push(msg.sender);\n\n        contractExists[newDAOAddress] = true;\n        emit DAOGenerated(msg.sender, newDAOAddress);\n    }\n\n    /* called from an EasyDAO contract */\n    function joinDAO() public {\n        require(\n            contractExists[msg.sender],\n            \"Caller must be an EasyDAO contract\"\n        );\n        userDAOs[tx.origin].push(msg.sender); // push contract into user bucket\n        daoUsers[msg.sender].push(tx.origin); // push user into contract bucket\n    }\n\n    function getUserDAOs(address _user)\n        public\n        view\n        returns (address[] memory daos)\n    {\n        return userDAOs[_user];\n    }\n\n    function getDAOUsers(address _dao)\n        public\n        view\n        returns (address[] memory users)\n    {\n        return daoUsers[_dao];\n    }\n}\n",
  "sourcePath": "/Users/michaeljcohen/Desktop/projects/easy-dao/contracts/DAOFactory.sol",
  "compiler": {
    "name": "solc",
    "version": "0.5.0+commit.1d4f565a.Emscripten.clang"
  },
  "schemaVersion": "3.0.2",
  "updatedAt": "2019-12-16T19:35:05.541Z",
  "devdoc": {
    "methods": {}
  },
  "userdoc": {
    "methods": {}
  }
}