{
  "contractName": "EasyDAO",
  "abi": [
    {
      "constant": true,
      "inputs": [
        {
          "name": "",
          "type": "uint256"
        }
      ],
      "name": "proposals",
      "outputs": [
        {
          "name": "recipient",
          "type": "address"
        },
        {
          "name": "proposalUrl",
          "type": "string"
        },
        {
          "name": "amount",
          "type": "uint256"
        },
        {
          "name": "initiatedAt",
          "type": "uint256"
        },
        {
          "name": "yea",
          "type": "uint256"
        },
        {
          "name": "nay",
          "type": "uint256"
        },
        {
          "name": "amountWithdrawn",
          "type": "bool"
        }
      ],
      "payable": false,
      "stateMutability": "view",
      "type": "function"
    },
    {
      "constant": true,
      "inputs": [],
      "name": "votingPeriod",
      "outputs": [
        {
          "name": "",
          "type": "uint256"
        }
      ],
      "payable": false,
      "stateMutability": "view",
      "type": "function"
    },
    {
      "inputs": [
        {
          "name": "_entryFee",
          "type": "uint256"
        },
        {
          "name": "_votingPeriod",
          "type": "uint256"
        },
        {
          "name": "_factoryAddress",
          "type": "address"
        }
      ],
      "payable": true,
      "stateMutability": "payable",
      "type": "constructor"
    },
    {
      "payable": true,
      "stateMutability": "payable",
      "type": "fallback"
    },
    {
      "constant": false,
      "inputs": [],
      "name": "join",
      "outputs": [],
      "payable": true,
      "stateMutability": "payable",
      "type": "function"
    },
    {
      "constant": false,
      "inputs": [
        {
          "name": "_proposalUrl",
          "type": "string"
        },
        {
          "name": "_amount",
          "type": "uint256"
        }
      ],
      "name": "makeProposal",
      "outputs": [],
      "payable": false,
      "stateMutability": "nonpayable",
      "type": "function"
    },
    {
      "constant": false,
      "inputs": [
        {
          "name": "_proposalId",
          "type": "uint256"
        },
        {
          "name": "_vote",
          "type": "uint256"
        }
      ],
      "name": "voteOnProposal",
      "outputs": [],
      "payable": false,
      "stateMutability": "nonpayable",
      "type": "function"
    },
    {
      "constant": false,
      "inputs": [
        {
          "name": "_proposalId",
          "type": "uint256"
        }
      ],
      "name": "withdrawAwardedFunds",
      "outputs": [],
      "payable": false,
      "stateMutability": "nonpayable",
      "type": "function"
    },
    {
      "constant": true,
      "inputs": [],
      "name": "getNumberOfProposals",
      "outputs": [
        {
          "name": "_numProposals",
          "type": "uint256"
        }
      ],
      "payable": false,
      "stateMutability": "view",
      "type": "function"
    },
    {
      "constant": true,
      "inputs": [],
      "name": "getDAO",
      "outputs": [
        {
          "name": "_votingPeriod",
          "type": "uint256"
        },
        {
          "name": "_entryFee",
          "type": "uint256"
        },
        {
          "name": "_members",
          "type": "uint256"
        },
        {
          "name": "_numProposals",
          "type": "uint256"
        }
      ],
      "payable": false,
      "stateMutability": "view",
      "type": "function"
    },
    {
      "constant": true,
      "inputs": [
        {
          "name": "_spender",
          "type": "address"
        }
      ],
      "name": "isDelegate",
      "outputs": [
        {
          "name": "_isDelegate",
          "type": "bool"
        }
      ],
      "payable": false,
      "stateMutability": "view",
      "type": "function"
    },
    {
      "constant": false,
      "inputs": [
        {
          "name": "_spender",
          "type": "address"
        }
      ],
      "name": "delegate",
      "outputs": [],
      "payable": false,
      "stateMutability": "nonpayable",
      "type": "function"
    }
  ],
  "bytecode": "0x608060405260016003556040516060806114c88339810180604052606081101561002857600080fd5b8101908080519060200190929190805190602001909291908051906020019092919050505082600681905550816000819055506001600860003273ffffffffffffffffffffffffffffffffffffffff1673ffffffffffffffffffffffffffffffffffffffff16815260200190815260200160002060006101000a81548160ff02191690831515021790555080600260006101000a81548173ffffffffffffffffffffffffffffffffffffffff021916908373ffffffffffffffffffffffffffffffffffffffff1602179055505050506113c2806101066000396000f3fe6080604052600436106100a4576000357c0100000000000000000000000000000000000000000000000000000000900463ffffffff168063013cf08b146100a657806302a251a3146101b457806307779627146101df578063145d51151461024857806333809b6c14610283578063556f6cc0146102ae5780635c19a95c146102f3578063985da72614610344578063b688a36314610384578063ebe572911461038e575b005b3480156100b257600080fd5b506100df600480360360208110156100c957600080fd5b8101908080359060200190929190505050610460565b604051808873ffffffffffffffffffffffffffffffffffffffff1673ffffffffffffffffffffffffffffffffffffffff1681526020018060200187815260200186815260200185815260200184815260200183151515158152602001828103825288818151815260200191508051906020019080838360005b83811015610173578082015181840152602081019050610158565b50505050905090810190601f1680156101a05780820380516001836020036101000a031916815260200191505b509850505050505050505060405180910390f35b3480156101c057600080fd5b506101c9610576565b6040518082815260200191505060405180910390f35b3480156101eb57600080fd5b5061022e6004803603602081101561020257600080fd5b81019080803573ffffffffffffffffffffffffffffffffffffffff16906020019092919050505061057c565b604051808215151515815260200191505060405180910390f35b34801561025457600080fd5b506102816004803603602081101561026b57600080fd5b81019080803590602001909291905050506105ea565b005b34801561028f57600080fd5b5061029861087c565b6040518082815260200191505060405180910390f35b3480156102ba57600080fd5b506102f1600480360360408110156102d157600080fd5b810190808035906020019092919080359060200190929190505050610889565b005b3480156102ff57600080fd5b506103426004803603602081101561031657600080fd5b81019080803573ffffffffffffffffffffffffffffffffffffffff169060200190929190505050610c00565b005b34801561035057600080fd5b50610359610e34565b6040518085815260200184815260200183815260200182815260200194505050505060405180910390f35b61038c610e59565b005b34801561039a57600080fd5b5061045e600480360360408110156103b157600080fd5b81019080803590602001906401000000008111156103ce57600080fd5b8201836020820111156103e057600080fd5b8035906020019184600183028401116401000000008311171561040257600080fd5b91908080601f016020809104026020016040519081016040528093929190818152602001838380828437600081840152601f19601f8201169050808301925050505050505091929192908035906020019092919050505061109e565b005b60018181548110151561046f57fe5b90600052602060002090600702016000915090508060000160009054906101000a900473ffffffffffffffffffffffffffffffffffffffff1690806001018054600181600116156101000203166002900480601f0160208091040260200160405190810160405280929190818152602001828054600181600116156101000203166002900480156105415780601f1061051657610100808354040283529160200191610541565b820191906000526020600020905b81548152906001019060200180831161052457829003601f168201915b5050505050908060020154908060030154908060040154908060050154908060060160009054906101000a900460ff16905087565b60005481565b60006003600754101561059257600090506105e5565b60026007548115156105a057fe5b04600960008473ffffffffffffffffffffffffffffffffffffffff1673ffffffffffffffffffffffffffffffffffffffff168152602001908152602001600020541190505b919050565b6000546004600083815260200190815260200160002060030154014211151561067b576040517f08c379a000000000000000000000000000000000000000000000000000000000815260040180806020018281038252601b8152602001807f566f74696e6720706572696f64207374696c6c206f6e676f696e67000000000081525060200191505060405180910390fd5b3373ffffffffffffffffffffffffffffffffffffffff166004600083815260200190815260200160002060000160009054906101000a900473ffffffffffffffffffffffffffffffffffffffff1673ffffffffffffffffffffffffffffffffffffffff16141515610754576040517f08c379a00000000000000000000000000000000000000000000000000000000081526004018080602001828103825260118152602001807f496e76616c696420726563697069656e7400000000000000000000000000000081525060200191505060405180910390fd5b6004600082815260200190815260200160002060060160009054906101000a900460ff161515156107ed576040517f08c379a00000000000000000000000000000000000000000000000000000000081526004018080602001828103825260178152602001807f56616c756520616c72656164792077697468647261776e00000000000000000081525060200191505060405180910390fd5b60016004600083815260200190815260200160002060060160006101000a81548160ff0219169083151502179055503373ffffffffffffffffffffffffffffffffffffffff166108fc60046000848152602001908152602001600020600201549081150290604051600060405180830381858888f19350505050158015610878573d6000803e3d6000fd5b5050565b6000600160035403905090565b60011515600860003373ffffffffffffffffffffffffffffffffffffffff1673ffffffffffffffffffffffffffffffffffffffff16815260200190815260200160002060009054906101000a900460ff161515141515610951576040517f08c379a000000000000000000000000000000000000000000000000000000000815260040180806020018281038252600e8152602001807f4d757374206265206d656d62657200000000000000000000000000000000000081525060200191505060405180910390fd5b60008114806109605750600181145b15156109d4576040517f08c379a000000000000000000000000000000000000000000000000000000000815260040180806020018281038252600c8152602001807f496e76616c696420766f7465000000000000000000000000000000000000000081525060200191505060405180910390fd5b600560003373ffffffffffffffffffffffffffffffffffffffff1673ffffffffffffffffffffffffffffffffffffffff168152602001908152602001600020600083815260200190815260200160002060009054906101000a900460ff16151515610aa7576040517f08c379a00000000000000000000000000000000000000000000000000000000081526004018080602001828103825260118152602001807f48617320616c726561647920766f74656400000000000000000000000000000081525060200191505060405180910390fd5b60005460046000848152602001908152602001600020600301540142101515610b38576040517f08c379a00000000000000000000000000000000000000000000000000000000081526004018080602001828103825260158152602001807f566f74696e6720706572696f642065787069726564000000000000000000000081525060200191505060405180910390fd5b6000811415610b6c576004600083815260200190815260200160002060050160008154809291906001019190505550610b93565b60046000838152602001908152602001600020600401600081548092919060010191905055505b6001600560003373ffffffffffffffffffffffffffffffffffffffff1673ffffffffffffffffffffffffffffffffffffffff168152602001908152602001600020600084815260200190815260200160002060006101000a81548160ff0219169083151502179055505050565b60011515600860003373ffffffffffffffffffffffffffffffffffffffff1673ffffffffffffffffffffffffffffffffffffffff16815260200190815260200160002060009054906101000a900460ff161515141515610cc8576040517f08c379a000000000000000000000000000000000000000000000000000000000815260040180806020018281038252600e8152602001807f4d757374206265206d656d62657200000000000000000000000000000000000081525060200191505060405180910390fd5b600a60003373ffffffffffffffffffffffffffffffffffffffff1673ffffffffffffffffffffffffffffffffffffffff16815260200190815260200160002060009054906101000a900460ff16151515610d8a576040517f08c379a000000000000000000000000000000000000000000000000000000000815260040180806020018281038252601c8152602001807f4d656d6265722068617320616c72656164792064656c6567617465640000000081525060200191505060405180910390fd5b6001600a60003373ffffffffffffffffffffffffffffffffffffffff1673ffffffffffffffffffffffffffffffffffffffff16815260200190815260200160002060006101000a81548160ff021916908315150217905550600960008273ffffffffffffffffffffffffffffffffffffffff1673ffffffffffffffffffffffffffffffffffffffff1681526020019081526020016000206000815480929190600101919050555050565b600080600080600054600654600754610e4b61087c565b935093509350935090919293565b60065434141515610ed2576040517f08c379a00000000000000000000000000000000000000000000000000000000081526004018080602001828103825260178152602001807f496e636f727265637420656e747279207061796d656e7400000000000000000081525060200191505060405180910390fd5b600860003373ffffffffffffffffffffffffffffffffffffffff1673ffffffffffffffffffffffffffffffffffffffff16815260200190815260200160002060009054906101000a900460ff16151515610f94576040517f08c379a00000000000000000000000000000000000000000000000000000000081526004018080602001828103825260188152602001807f5573657220697320616c72656164792061206d656d626572000000000000000081525060200191505060405180910390fd5b6001600860003373ffffffffffffffffffffffffffffffffffffffff1673ffffffffffffffffffffffffffffffffffffffff16815260200190815260200160002060006101000a81548160ff021916908315150217905550600260009054906101000a900473ffffffffffffffffffffffffffffffffffffffff1673ffffffffffffffffffffffffffffffffffffffff1663f63d13d76040518163ffffffff167c0100000000000000000000000000000000000000000000000000000000028152600401600060405180830381600087803b15801561107257600080fd5b505af1158015611086573d6000803e3d6000fd5b50505050600760008154809291906001019190505550565b60011515600860003373ffffffffffffffffffffffffffffffffffffffff1673ffffffffffffffffffffffffffffffffffffffff16815260200190815260200160002060009054906101000a900460ff161515141515611166576040517f08c379a000000000000000000000000000000000000000000000000000000000815260040180806020018281038252600e8152602001807f4d757374206265206d656d62657200000000000000000000000000000000000081525060200191505060405180910390fd5b61116e61129b565b60e0604051908101604052803373ffffffffffffffffffffffffffffffffffffffff16815260200184815260200183815260200142815260200160008152602001600081526020016000151581525090508060046000600354815260200190815260200160002060008201518160000160006101000a81548173ffffffffffffffffffffffffffffffffffffffff021916908373ffffffffffffffffffffffffffffffffffffffff16021790555060208201518160010190805190602001906112389291906112f1565b5060408201518160020155606082015181600301556080820151816004015560a0820151816005015560c08201518160060160006101000a81548160ff021916908315150217905550905050600360008154809291906001019190505550505050565b60e060405190810160405280600073ffffffffffffffffffffffffffffffffffffffff16815260200160608152602001600081526020016000815260200160008152602001600081526020016000151581525090565b828054600181600116156101000203166002900490600052602060002090601f016020900481019282601f1061133257805160ff1916838001178555611360565b82800160010185558215611360579182015b8281111561135f578251825591602001919060010190611344565b5b50905061136d9190611371565b5090565b61139391905b8082111561138f576000816000905550600101611377565b5090565b9056fea165627a7a72305820e89297ccc97ccef68262d0d5b68535befce621818b0f3f5b1ecbb59168d164730029",
  "source": "pragma solidity 0.5.0;\n\n// EasyDAO use cases\n// friends trip\n// social or professional event\n// charitable organizations\n//\n\ninterface DAOFactoryContract {\n    function joinDAO() external;\n}\n\ncontract EasyDAO {\n    uint256 public votingPeriod; // seconds\n\n    Proposal[] public proposals; // needed?\n\n    DAOFactoryContract factoryContract;\n\n    uint256 proposalId = 1;\n    mapping(uint256 => Proposal) proposalById; // proposalId => Proposal\n    mapping(address => mapping(uint256 => bool)) hasVoted; // voter => proposalId => bool hasVoted\n\n    struct Proposal {\n        address recipient; // grant recipient\n        string proposalUrl; // google doc, for example\n        uint256 amount; // wei\n        uint256 initiatedAt; //timestamp\n        uint256 yea; // votes\n        uint256 nay; // votes\n        bool amountWithdrawn;\n    }\n\n    uint256 entryFee; // wei\n    uint256 members; // num\n    mapping(address => bool) isMemberBool;\n\n    mapping(address => uint256) delegated; // voter => other voters who have delegated to them\n    mapping(address => bool) hasDelegated;\n\n    constructor(\n        uint256 _entryFee,\n        uint256 _votingPeriod,\n        address _factoryAddress\n    ) public payable {\n        entryFee = _entryFee;\n        votingPeriod = _votingPeriod;\n        isMemberBool[tx.origin] = true;\n        factoryContract = DAOFactoryContract(_factoryAddress);\n    }\n\n    function() external payable {}\n\n    /* Enter DAO */\n    function join() public payable {\n        require(msg.value == entryFee, \"Incorrect entry payment\");\n        require(!isMemberBool[msg.sender], \"User is already a member\");\n\n        isMemberBool[msg.sender] = true;\n        factoryContract.joinDAO();\n        members++;\n    }\n\n    modifier isMember() {\n        require(isMemberBool[msg.sender] == true, \"Must be member\");\n        _;\n    }\n\n    function makeProposal(string memory _proposalUrl, uint256 _amount)\n        public\n        isMember\n    {\n        Proposal memory newProposal = Proposal({\n            recipient: msg.sender,\n            proposalUrl: _proposalUrl,\n            amount: _amount,\n            initiatedAt: block.timestamp,\n            yea: 0,\n            nay: 0,\n            amountWithdrawn: false\n        });\n\n        proposalById[proposalId] = newProposal;\n        proposalId++;\n    }\n\n    // _vote: 0 for no, 1 for yes\n    function voteOnProposal(uint256 _proposalId, uint256 _vote)\n        public\n        isMember\n    {\n        require(_vote == 0 || _vote == 1, \"Invalid vote\");\n        require(!hasVoted[msg.sender][_proposalId], \"Has already voted\");\n        require(\n            block.timestamp <\n                proposalById[_proposalId].initiatedAt + votingPeriod,\n            \"Voting period expired\"\n        );\n\n        if (_vote == 0) {\n            proposalById[_proposalId].nay++;\n        } else {\n            proposalById[_proposalId].yea++;\n        }\n\n        hasVoted[msg.sender][_proposalId] = true;\n    }\n\n    function withdrawAwardedFunds(uint256 _proposalId) public {\n        require(\n            block.timestamp >\n                proposalById[_proposalId].initiatedAt + votingPeriod,\n            \"Voting period still ongoing\"\n        );\n        require(\n            proposalById[_proposalId].recipient == msg.sender,\n            \"Invalid recipient\"\n        );\n        require(\n            !proposalById[_proposalId].amountWithdrawn,\n            \"Value already withdrawn\"\n        );\n\n        proposalById[_proposalId].amountWithdrawn = true;\n        (msg.sender).transfer(proposalById[_proposalId].amount);\n    }\n\n    function getNumberOfProposals()\n        public\n        view\n        returns (uint256 _numProposals)\n    {\n        return proposalId - 1;\n    }\n\n    function getDAO()\n        public\n        view\n        returns (\n            uint256 _votingPeriod,\n            uint256 _entryFee,\n            uint256 _members,\n            uint256 _numProposals\n        )\n    {\n        return (votingPeriod, entryFee, members, getNumberOfProposals());\n    }\n\n    function isDelegate(address _spender)\n        public\n        view\n        returns (bool _isDelegate)\n    {\n        if (members < 3) return false;\n\n        return (delegated[_spender] > members / 2);\n    }\n\n    /* give unquestioned power of purse */\n    function delegate(address _spender) public isMember {\n        require(!hasDelegated[msg.sender], \"Member has already delegated\");\n\n        hasDelegated[msg.sender] = true;\n        delegated[_spender]++;\n    }\n}\n",
  "sourcePath": "/Users/michaeljcohen/Desktop/projects/easy-dao/contracts/EasyDAO.sol",
  "compiler": {
    "name": "solc",
    "version": "0.5.0+commit.1d4f565a.Emscripten.clang"
  },
  "schemaVersion": "3.0.2",
  "updatedAt": "2019-12-16T19:33:04.273Z",
  "devdoc": {
    "methods": {}
  },
  "userdoc": {
    "methods": {}
  }
}